{
  "contractName": "Dai",
  "abi": [
    {
      "constant": true,
      "inputs": [],
      "name": "name",
      "outputs": [
        {
          "name": "",
          "type": "string"
        }
      ],
      "payable": false,
      "stateMutability": "view",
      "type": "function"
    },
    {
      "constant": true,
      "inputs": [],
      "name": "totalSupply",
      "outputs": [
        {
          "name": "",
          "type": "uint256"
        }
      ],
      "payable": false,
      "stateMutability": "view",
      "type": "function"
    },
    {
      "constant": true,
      "inputs": [],
      "name": "PERMIT_TYPEHASH",
      "outputs": [
        {
          "name": "",
          "type": "bytes32"
        }
      ],
      "payable": false,
      "stateMutability": "view",
      "type": "function"
    },
    {
      "constant": true,
      "inputs": [],
      "name": "decimals",
      "outputs": [
        {
          "name": "",
          "type": "uint8"
        }
      ],
      "payable": false,
      "stateMutability": "view",
      "type": "function"
    },
    {
      "constant": true,
      "inputs": [],
      "name": "DOMAIN_SEPARATOR",
      "outputs": [
        {
          "name": "",
          "type": "bytes32"
        }
      ],
      "payable": false,
      "stateMutability": "view",
      "type": "function"
    },
    {
      "constant": true,
      "inputs": [],
      "name": "version",
      "outputs": [
        {
          "name": "",
          "type": "string"
        }
      ],
      "payable": false,
      "stateMutability": "view",
      "type": "function"
    },
    {
      "constant": true,
      "inputs": [
        {
          "name": "",
          "type": "address"
        }
      ],
      "name": "balanceOf",
      "outputs": [
        {
          "name": "",
          "type": "uint256"
        }
      ],
      "payable": false,
      "stateMutability": "view",
      "type": "function"
    },
    {
      "constant": true,
      "inputs": [
        {
          "name": "",
          "type": "address"
        }
      ],
      "name": "nonces",
      "outputs": [
        {
          "name": "",
          "type": "uint256"
        }
      ],
      "payable": false,
      "stateMutability": "view",
      "type": "function"
    },
    {
      "constant": true,
      "inputs": [],
      "name": "symbol",
      "outputs": [
        {
          "name": "",
          "type": "string"
        }
      ],
      "payable": false,
      "stateMutability": "view",
      "type": "function"
    },
    {
      "constant": true,
      "inputs": [
        {
          "name": "",
          "type": "address"
        }
      ],
      "name": "wards",
      "outputs": [
        {
          "name": "",
          "type": "uint256"
        }
      ],
      "payable": false,
      "stateMutability": "view",
      "type": "function"
    },
    {
      "constant": true,
      "inputs": [
        {
          "name": "",
          "type": "address"
        },
        {
          "name": "",
          "type": "address"
        }
      ],
      "name": "allowance",
      "outputs": [
        {
          "name": "",
          "type": "uint256"
        }
      ],
      "payable": false,
      "stateMutability": "view",
      "type": "function"
    },
    {
      "inputs": [
        {
          "name": "chainId_",
          "type": "uint256"
        }
      ],
      "payable": false,
      "stateMutability": "nonpayable",
      "type": "constructor"
    },
    {
      "anonymous": false,
      "inputs": [
        {
          "indexed": true,
          "name": "src",
          "type": "address"
        },
        {
          "indexed": true,
          "name": "guy",
          "type": "address"
        },
        {
          "indexed": false,
          "name": "wad",
          "type": "uint256"
        }
      ],
      "name": "Approval",
      "type": "event"
    },
    {
      "anonymous": false,
      "inputs": [
        {
          "indexed": true,
          "name": "src",
          "type": "address"
        },
        {
          "indexed": true,
          "name": "dst",
          "type": "address"
        },
        {
          "indexed": false,
          "name": "wad",
          "type": "uint256"
        }
      ],
      "name": "Transfer",
      "type": "event"
    },
    {
      "anonymous": true,
      "inputs": [
        {
          "indexed": true,
          "name": "sig",
          "type": "bytes4"
        },
        {
          "indexed": true,
          "name": "usr",
          "type": "address"
        },
        {
          "indexed": true,
          "name": "arg1",
          "type": "bytes32"
        },
        {
          "indexed": true,
          "name": "arg2",
          "type": "bytes32"
        },
        {
          "indexed": false,
          "name": "data",
          "type": "bytes"
        }
      ],
      "name": "LogNote",
      "type": "event"
    },
    {
      "constant": false,
      "inputs": [
        {
          "name": "guy",
          "type": "address"
        }
      ],
      "name": "rely",
      "outputs": [],
      "payable": false,
      "stateMutability": "nonpayable",
      "type": "function"
    },
    {
      "constant": false,
      "inputs": [
        {
          "name": "guy",
          "type": "address"
        }
      ],
      "name": "deny",
      "outputs": [],
      "payable": false,
      "stateMutability": "nonpayable",
      "type": "function"
    },
    {
      "constant": false,
      "inputs": [
        {
          "name": "dst",
          "type": "address"
        },
        {
          "name": "wad",
          "type": "uint256"
        }
      ],
      "name": "transfer",
      "outputs": [
        {
          "name": "",
          "type": "bool"
        }
      ],
      "payable": false,
      "stateMutability": "nonpayable",
      "type": "function"
    },
    {
      "constant": false,
      "inputs": [
        {
          "name": "src",
          "type": "address"
        },
        {
          "name": "dst",
          "type": "address"
        },
        {
          "name": "wad",
          "type": "uint256"
        }
      ],
      "name": "transferFrom",
      "outputs": [
        {
          "name": "",
          "type": "bool"
        }
      ],
      "payable": false,
      "stateMutability": "nonpayable",
      "type": "function"
    },
    {
      "constant": false,
      "inputs": [
        {
          "name": "usr",
          "type": "address"
        },
        {
          "name": "wad",
          "type": "uint256"
        }
      ],
      "name": "mint",
      "outputs": [],
      "payable": false,
      "stateMutability": "nonpayable",
      "type": "function"
    },
    {
      "constant": false,
      "inputs": [
        {
          "name": "usr",
          "type": "address"
        },
        {
          "name": "wad",
          "type": "uint256"
        }
      ],
      "name": "burn",
      "outputs": [],
      "payable": false,
      "stateMutability": "nonpayable",
      "type": "function"
    },
    {
      "constant": false,
      "inputs": [
        {
          "name": "usr",
          "type": "address"
        },
        {
          "name": "wad",
          "type": "uint256"
        }
      ],
      "name": "approve",
      "outputs": [
        {
          "name": "",
          "type": "bool"
        }
      ],
      "payable": false,
      "stateMutability": "nonpayable",
      "type": "function"
    },
    {
      "constant": false,
      "inputs": [
        {
          "name": "usr",
          "type": "address"
        },
        {
          "name": "wad",
          "type": "uint256"
        }
      ],
      "name": "push",
      "outputs": [],
      "payable": false,
      "stateMutability": "nonpayable",
      "type": "function"
    },
    {
      "constant": false,
      "inputs": [
        {
          "name": "usr",
          "type": "address"
        },
        {
          "name": "wad",
          "type": "uint256"
        }
      ],
      "name": "pull",
      "outputs": [],
      "payable": false,
      "stateMutability": "nonpayable",
      "type": "function"
    },
    {
      "constant": false,
      "inputs": [
        {
          "name": "src",
          "type": "address"
        },
        {
          "name": "dst",
          "type": "address"
        },
        {
          "name": "wad",
          "type": "uint256"
        }
      ],
      "name": "move",
      "outputs": [],
      "payable": false,
      "stateMutability": "nonpayable",
      "type": "function"
    },
    {
      "constant": false,
      "inputs": [
        {
          "name": "holder",
          "type": "address"
        },
        {
          "name": "spender",
          "type": "address"
        },
        {
          "name": "nonce",
          "type": "uint256"
        },
        {
          "name": "expiry",
          "type": "uint256"
        },
        {
          "name": "allowed",
          "type": "bool"
        },
        {
          "name": "v",
          "type": "uint8"
        },
        {
          "name": "r",
          "type": "bytes32"
        },
        {
          "name": "s",
          "type": "bytes32"
        }
      ],
      "name": "permit",
      "outputs": [],
      "payable": false,
      "stateMutability": "nonpayable",
      "type": "function"
    }
  ],
  "bytecode": "0x608060405234801561001057600080fd5b506040516020806121fc8339810180604052602081101561003057600080fd5b810190808051906020019092919050505060016000803373ffffffffffffffffffffffffffffffffffffffff1673ffffffffffffffffffffffffffffffffffffffff1681526020019081526020016000208190555060405180807f454950373132446f6d61696e28737472696e67206e616d652c737472696e672081526020017f76657273696f6e2c75696e7432353620636861696e49642c616464726573732081526020017f766572696679696e67436f6e7472616374290000000000000000000000000000815250605201905060405180910390206040805190810160405280600e81526020017f44616920537461626c65636f696e000000000000000000000000000000000000815250805190602001206040805190810160405280600181526020017f3100000000000000000000000000000000000000000000000000000000000000815250805190602001208330604051602001808681526020018581526020018481526020018381526020018273ffffffffffffffffffffffffffffffffffffffff1673ffffffffffffffffffffffffffffffffffffffff168152602001955050505050506040516020818303038152906040528051906020012060058190555050611ff5806102076000396000f3fe608060405260043610610128576000357c0100000000000000000000000000000000000000000000000000000000900463ffffffff16806306fdde031461012d578063095ea7b3146101bd57806318160ddd1461023057806323b872dd1461025b57806330adf81f146102ee578063313ce567146103195780633644e5151461034a57806340c10f191461037557806354fd4d50146103d057806365fae35e1461046057806370a08231146104b15780637ecebe00146105165780638fcbaf0c1461057b57806395d89b411461062e5780639c52a7f1146106be5780639dc29fac1461070f578063a9059cbb1461076a578063b753a98c146107dd578063bb35783b14610838578063bf353dbb146108b3578063dd62ed3e14610918578063f2d5d56b1461099d575b600080fd5b34801561013957600080fd5b506101426109f8565b6040518080602001828103825283818151815260200191508051906020019080838360005b83811015610182578082015181840152602081019050610167565b50505050905090810190601f1680156101af5780820380516001836020036101000a031916815260200191505b509250505060405180910390f35b3480156101c957600080fd5b50610216600480360360408110156101e057600080fd5b81019080803573ffffffffffffffffffffffffffffffffffffffff16906020019092919080359060200190929190505050610a31565b604051808215151515815260200191505060405180910390f35b34801561023c57600080fd5b50610245610b23565b6040518082815260200191505060405180910390f35b34801561026757600080fd5b506102d46004803603606081101561027e57600080fd5b81019080803573ffffffffffffffffffffffffffffffffffffffff169060200190929190803573ffffffffffffffffffffffffffffffffffffffff16906020019092919080359060200190929190505050610b29565b604051808215151515815260200191505060405180910390f35b3480156102fa57600080fd5b50610303611042565b6040518082815260200191505060405180910390f35b34801561032557600080fd5b5061032e611069565b604051808260ff1660ff16815260200191505060405180910390f35b34801561035657600080fd5b5061035f61106e565b6040518082815260200191505060405180910390f35b34801561038157600080fd5b506103ce6004803603604081101561039857600080fd5b81019080803573ffffffffffffffffffffffffffffffffffffffff16906020019092919080359060200190929190505050611074565b005b3480156103dc57600080fd5b506103e5611232565b6040518080602001828103825283818151815260200191508051906020019080838360005b8381101561042557808201518184015260208101905061040a565b50505050905090810190601f1680156104525780820380516001836020036101000a031916815260200191505b509250505060405180910390f35b34801561046c57600080fd5b506104af6004803603602081101561048357600080fd5b81019080803573ffffffffffffffffffffffffffffffffffffffff16906020019092919050505061126b565b005b3480156104bd57600080fd5b50610500600480360360208110156104d457600080fd5b81019080803573ffffffffffffffffffffffffffffffffffffffff16906020019092919050505061139b565b6040518082815260200191505060405180910390f35b34801561052257600080fd5b506105656004803603602081101561053957600080fd5b81019080803573ffffffffffffffffffffffffffffffffffffffff1690602001909291905050506113b3565b6040518082815260200191505060405180910390f35b34801561058757600080fd5b5061062c600480360361010081101561059f57600080fd5b81019080803573ffffffffffffffffffffffffffffffffffffffff169060200190929190803573ffffffffffffffffffffffffffffffffffffffff1690602001909291908035906020019092919080359060200190929190803515159060200190929190803560ff16906020019092919080359060200190929190803590602001909291905050506113cb565b005b34801561063a57600080fd5b5061064361190e565b6040518080602001828103825283818151815260200191508051906020019080838360005b83811015610683578082015181840152602081019050610668565b50505050905090810190601f1680156106b05780820380516001836020036101000a031916815260200191505b509250505060405180910390f35b3480156106ca57600080fd5b5061070d600480360360208110156106e157600080fd5b81019080803573ffffffffffffffffffffffffffffffffffffffff169060200190929190505050611947565b005b34801561071b57600080fd5b506107686004803603604081101561073257600080fd5b81019080803573ffffffffffffffffffffffffffffffffffffffff16906020019092919080359060200190929190505050611a77565b005b34801561077657600080fd5b506107c36004803603604081101561078d57600080fd5b81019080803573ffffffffffffffffffffffffffffffffffffffff16906020019092919080359060200190929190505050611f0e565b604051808215151515815260200191505060405180910390f35b3480156107e957600080fd5b506108366004803603604081101561080057600080fd5b81019080803573ffffffffffffffffffffffffffffffffffffffff16906020019092919080359060200190929190505050611f23565b005b34801561084457600080fd5b506108b16004803603606081101561085b57600080fd5b81019080803573ffffffffffffffffffffffffffffffffffffffff169060200190929190803573ffffffffffffffffffffffffffffffffffffffff16906020019092919080359060200190929190505050611f33565b005b3480156108bf57600080fd5b50610902600480360360208110156108d657600080fd5b81019080803573ffffffffffffffffffffffffffffffffffffffff169060200190929190505050611f44565b6040518082815260200191505060405180910390f35b34801561092457600080fd5b506109876004803603604081101561093b57600080fd5b81019080803573ffffffffffffffffffffffffffffffffffffffff169060200190929190803573ffffffffffffffffffffffffffffffffffffffff169060200190929190505050611f5c565b6040518082815260200191505060405180910390f35b3480156109a957600080fd5b506109f6600480360360408110156109c057600080fd5b81019080803573ffffffffffffffffffffffffffffffffffffffff16906020019092919080359060200190929190505050611f81565b005b6040805190810160405280600e81526020017f44616920537461626c65636f696e00000000000000000000000000000000000081525081565b600081600360003373ffffffffffffffffffffffffffffffffffffffff1673ffffffffffffffffffffffffffffffffffffffff16815260200190815260200160002060008573ffffffffffffffffffffffffffffffffffffffff1673ffffffffffffffffffffffffffffffffffffffff168152602001908152602001600020819055508273ffffffffffffffffffffffffffffffffffffffff163373ffffffffffffffffffffffffffffffffffffffff167f8c5be1e5ebec7d5bd14f71427d1e84f3dd0314c0f7b2291e5b200ac8c7c3b925846040518082815260200191505060405180910390a36001905092915050565b60015481565b600081600260008673ffffffffffffffffffffffffffffffffffffffff1673ffffffffffffffffffffffffffffffffffffffff1681526020019081526020016000205410151515610be2576040517f08c379a00000000000000000000000000000000000000000000000000000000081526004018080602001828103825260188152602001807f4461692f696e73756666696369656e742d62616c616e6365000000000000000081525060200191505060405180910390fd5b3373ffffffffffffffffffffffffffffffffffffffff168473ffffffffffffffffffffffffffffffffffffffff1614158015610cba57507fffffffffffffffffffffffffffffffffffffffffffffffffffffffffffffffff600360008673ffffffffffffffffffffffffffffffffffffffff1673ffffffffffffffffffffffffffffffffffffffff16815260200190815260200160002060003373ffffffffffffffffffffffffffffffffffffffff1673ffffffffffffffffffffffffffffffffffffffff1681526020019081526020016000205414155b15610eba5781600360008673ffffffffffffffffffffffffffffffffffffffff1673ffffffffffffffffffffffffffffffffffffffff16815260200190815260200160002060003373ffffffffffffffffffffffffffffffffffffffff1673ffffffffffffffffffffffffffffffffffffffff1681526020019081526020016000205410151515610db3576040517f08c379a000000000000000000000000000000000000000000000000000000000815260040180806020018281038252601a8152602001807f4461692f696e73756666696369656e742d616c6c6f77616e636500000000000081525060200191505060405180910390fd5b610e39600360008673ffffffffffffffffffffffffffffffffffffffff1673ffffffffffffffffffffffffffffffffffffffff16815260200190815260200160002060003373ffffffffffffffffffffffffffffffffffffffff1673ffffffffffffffffffffffffffffffffffffffff1681526020019081526020016000205483611f91565b600360008673ffffffffffffffffffffffffffffffffffffffff1673ffffffffffffffffffffffffffffffffffffffff16815260200190815260200160002060003373ffffffffffffffffffffffffffffffffffffffff1673ffffffffffffffffffffffffffffffffffffffff168152602001908152602001600020819055505b610f03600260008673ffffffffffffffffffffffffffffffffffffffff1673ffffffffffffffffffffffffffffffffffffffff1681526020019081526020016000205483611f91565b600260008673ffffffffffffffffffffffffffffffffffffffff1673ffffffffffffffffffffffffffffffffffffffff16815260200190815260200160002081905550610f8f600260008573ffffffffffffffffffffffffffffffffffffffff1673ffffffffffffffffffffffffffffffffffffffff1681526020019081526020016000205483611fad565b600260008573ffffffffffffffffffffffffffffffffffffffff1673ffffffffffffffffffffffffffffffffffffffff168152602001908152602001600020819055508273ffffffffffffffffffffffffffffffffffffffff168473ffffffffffffffffffffffffffffffffffffffff167fddf252ad1be2c89b69c2b068fc378daa952ba7f163c4a11628f55a4df523b3ef846040518082815260200191505060405180910390a3600190509392505050565b7fea2aa0a1be11a07ed86d755c93467f4f82362b452371d1ba94d1715123511acb60010281565b601281565b60055481565b60016000803373ffffffffffffffffffffffffffffffffffffffff1673ffffffffffffffffffffffffffffffffffffffff1681526020019081526020016000205414151561112a576040517f08c379a00000000000000000000000000000000000000000000000000000000081526004018080602001828103825260128152602001807f4461692f6e6f742d617574686f72697a6564000000000000000000000000000081525060200191505060405180910390fd5b611173600260008473ffffffffffffffffffffffffffffffffffffffff1673ffffffffffffffffffffffffffffffffffffffff1681526020019081526020016000205482611fad565b600260008473ffffffffffffffffffffffffffffffffffffffff1673ffffffffffffffffffffffffffffffffffffffff168152602001908152602001600020819055506111c260015482611fad565b6001819055508173ffffffffffffffffffffffffffffffffffffffff16600073ffffffffffffffffffffffffffffffffffffffff167fddf252ad1be2c89b69c2b068fc378daa952ba7f163c4a11628f55a4df523b3ef836040518082815260200191505060405180910390a35050565b6040805190810160405280600181526020017f310000000000000000000000000000000000000000000000000000000000000081525081565b60016000803373ffffffffffffffffffffffffffffffffffffffff1673ffffffffffffffffffffffffffffffffffffffff16815260200190815260200160002054141515611321576040517f08c379a00000000000000000000000000000000000000000000000000000000081526004018080602001828103825260128152602001807f4461692f6e6f742d617574686f72697a6564000000000000000000000000000081525060200191505060405180910390fd5b60016000808373ffffffffffffffffffffffffffffffffffffffff1673ffffffffffffffffffffffffffffffffffffffff168152602001908152602001600020819055505961012081016040526020815260e0602082015260e0600060408301376024356004353360003560e01c60e01b61012085a45050565b60026020528060005260406000206000915090505481565b60046020528060005260406000206000915090505481565b60006005547fea2aa0a1be11a07ed86d755c93467f4f82362b452371d1ba94d1715123511acb6001028a8a8a8a8a604051602001808781526020018673ffffffffffffffffffffffffffffffffffffffff1673ffffffffffffffffffffffffffffffffffffffff1681526020018573ffffffffffffffffffffffffffffffffffffffff1673ffffffffffffffffffffffffffffffffffffffff1681526020018481526020018381526020018215151515815260200196505050505050506040516020818303038152906040528051906020012060405160200180807f190100000000000000000000000000000000000000000000000000000000000081525060020183815260200182815260200192505050604051602081830303815290604052805190602001209050600073ffffffffffffffffffffffffffffffffffffffff168973ffffffffffffffffffffffffffffffffffffffff161415151561159a576040517f08c379a00000000000000000000000000000000000000000000000000000000081526004018080602001828103825260158152602001807f4461692f696e76616c69642d616464726573732d30000000000000000000000081525060200191505060405180910390fd5b60018185858560405160008152602001604052604051808581526020018460ff1660ff1681526020018381526020018281526020019450505050506020604051602081039080840390855afa1580156115f7573d6000803e3d6000fd5b5050506020604051035173ffffffffffffffffffffffffffffffffffffffff168973ffffffffffffffffffffffffffffffffffffffff161415156116a3576040517f08c379a00000000000000000000000000000000000000000000000000000000081526004018080602001828103825260128152602001807f4461692f696e76616c69642d7065726d6974000000000000000000000000000081525060200191505060405180910390fd5b60008614806116b25750854211155b1515611726576040517f08c379a00000000000000000000000000000000000000000000000000000000081526004018080602001828103825260128152602001807f4461692f7065726d69742d65787069726564000000000000000000000000000081525060200191505060405180910390fd5b600460008a73ffffffffffffffffffffffffffffffffffffffff1673ffffffffffffffffffffffffffffffffffffffff168152602001908152602001600020600081548092919060010191905055871415156117ea576040517f08c379a00000000000000000000000000000000000000000000000000000000081526004018080602001828103825260118152602001807f4461692f696e76616c69642d6e6f6e636500000000000000000000000000000081525060200191505060405180910390fd5b6000856117f857600061181a565b7fffffffffffffffffffffffffffffffffffffffffffffffffffffffffffffffff5b905080600360008c73ffffffffffffffffffffffffffffffffffffffff1673ffffffffffffffffffffffffffffffffffffffff16815260200190815260200160002060008b73ffffffffffffffffffffffffffffffffffffffff1673ffffffffffffffffffffffffffffffffffffffff168152602001908152602001600020819055508873ffffffffffffffffffffffffffffffffffffffff168a73ffffffffffffffffffffffffffffffffffffffff167f8c5be1e5ebec7d5bd14f71427d1e84f3dd0314c0f7b2291e5b200ac8c7c3b925836040518082815260200191505060405180910390a350505050505050505050565b6040805190810160405280600381526020017f444149000000000000000000000000000000000000000000000000000000000081525081565b60016000803373ffffffffffffffffffffffffffffffffffffffff1673ffffffffffffffffffffffffffffffffffffffff168152602001908152602001600020541415156119fd576040517f08c379a00000000000000000000000000000000000000000000000000000000081526004018080602001828103825260128152602001807f4461692f6e6f742d617574686f72697a6564000000000000000000000000000081525060200191505060405180910390fd5b60008060008373ffffffffffffffffffffffffffffffffffffffff1673ffffffffffffffffffffffffffffffffffffffff168152602001908152602001600020819055505961012081016040526020815260e0602082015260e0600060408301376024356004353360003560e01c60e01b61012085a45050565b80600260008473ffffffffffffffffffffffffffffffffffffffff1673ffffffffffffffffffffffffffffffffffffffff1681526020019081526020016000205410151515611b2e576040517f08c379a00000000000000000000000000000000000000000000000000000000081526004018080602001828103825260188152602001807f4461692f696e73756666696369656e742d62616c616e6365000000000000000081525060200191505060405180910390fd5b3373ffffffffffffffffffffffffffffffffffffffff168273ffffffffffffffffffffffffffffffffffffffff1614158015611c0657507fffffffffffffffffffffffffffffffffffffffffffffffffffffffffffffffff600360008473ffffffffffffffffffffffffffffffffffffffff1673ffffffffffffffffffffffffffffffffffffffff16815260200190815260200160002060003373ffffffffffffffffffffffffffffffffffffffff1673ffffffffffffffffffffffffffffffffffffffff1681526020019081526020016000205414155b15611e065780600360008473ffffffffffffffffffffffffffffffffffffffff1673ffffffffffffffffffffffffffffffffffffffff16815260200190815260200160002060003373ffffffffffffffffffffffffffffffffffffffff1673ffffffffffffffffffffffffffffffffffffffff1681526020019081526020016000205410151515611cff576040517f08c379a000000000000000000000000000000000000000000000000000000000815260040180806020018281038252601a8152602001807f4461692f696e73756666696369656e742d616c6c6f77616e636500000000000081525060200191505060405180910390fd5b611d85600360008473ffffffffffffffffffffffffffffffffffffffff1673ffffffffffffffffffffffffffffffffffffffff16815260200190815260200160002060003373ffffffffffffffffffffffffffffffffffffffff1673ffffffffffffffffffffffffffffffffffffffff1681526020019081526020016000205482611f91565b600360008473ffffffffffffffffffffffffffffffffffffffff1673ffffffffffffffffffffffffffffffffffffffff16815260200190815260200160002060003373ffffffffffffffffffffffffffffffffffffffff1673ffffffffffffffffffffffffffffffffffffffff168152602001908152602001600020819055505b611e4f600260008473ffffffffffffffffffffffffffffffffffffffff1673ffffffffffffffffffffffffffffffffffffffff1681526020019081526020016000205482611f91565b600260008473ffffffffffffffffffffffffffffffffffffffff1673ffffffffffffffffffffffffffffffffffffffff16815260200190815260200160002081905550611e9e60015482611f91565b600181905550600073ffffffffffffffffffffffffffffffffffffffff168273ffffffffffffffffffffffffffffffffffffffff167fddf252ad1be2c89b69c2b068fc378daa952ba7f163c4a11628f55a4df523b3ef836040518082815260200191505060405180910390a35050565b6000611f1b338484610b29565b905092915050565b611f2e338383610b29565b505050565b611f3e838383610b29565b50505050565b60006020528060005260406000206000915090505481565b6003602052816000526040600020602052806000526040600020600091509150505481565b611f8c823383610b29565b505050565b60008282840391508111151515611fa757600080fd5b92915050565b60008282840191508110151515611fc357600080fd5b9291505056fea165627a7a72305820a50b877295d40fcd92f903458eb361476b68abb2cd20a362c1db65e4ca56321c0029",
  "source": "/**\r\n *Submitted for verification at Etherscan.io on 2019-11-14\r\n */\r\n\r\n// hevm: flattened sources of /nix/store/8xb41r4qd0cjb63wcrxf1qmfg88p0961-dss-6fd7de0/src/dai.sol\r\npragma solidity ^0.5.0;\r\n\r\n////// /nix/store/8xb41r4qd0cjb63wcrxf1qmfg88p0961-dss-6fd7de0/src/lib.sol\r\n// This program is free software: you can redistribute it and/or modify\r\n// it under the terms of the GNU General Public License as published by\r\n// the Free Software Foundation, either version 3 of the License, or\r\n// (at your option) any later version.\r\n\r\n// This program is distributed in the hope that it will be useful,\r\n// but WITHOUT ANY WARRANTY; without even the implied warranty of\r\n// MERCHANTABILITY or FITNESS FOR A PARTICULAR PURPOSE.  See the\r\n// GNU General Public License for more details.\r\n\r\n// You should have received a copy of the GNU General Public License\r\n// along with this program.  If not, see <http://www.gnu.org/licenses/>.\r\n\r\n/* pragma solidity 0.5.12; */\r\n\r\ncontract LibNote {\r\n    event LogNote(\r\n        bytes4 indexed sig,\r\n        address indexed usr,\r\n        bytes32 indexed arg1,\r\n        bytes32 indexed arg2,\r\n        bytes data\r\n    ) anonymous;\r\n\r\n    modifier note {\r\n        _;\r\n        assembly {\r\n            // log an 'anonymous' event with a constant 6 words of calldata\r\n            // and four indexed topics: selector, caller, arg1 and arg2\r\n            let mark := msize // end of memory ensures zero\r\n            mstore(0x40, add(mark, 288)) // update free memory pointer\r\n            mstore(mark, 0x20) // bytes type data offset\r\n            mstore(add(mark, 0x20), 224) // bytes size (padded)\r\n            calldatacopy(add(mark, 0x40), 0, 224) // bytes payload\r\n            log4(\r\n                mark,\r\n                288, // calldata\r\n                shl(224, shr(224, calldataload(0))), // msg.sig\r\n                caller, // msg.sender\r\n                calldataload(4), // arg1\r\n                calldataload(36) // arg2\r\n            )\r\n        }\r\n    }\r\n}\r\n\r\n////// /nix/store/8xb41r4qd0cjb63wcrxf1qmfg88p0961-dss-6fd7de0/src/dai.sol\r\n// Copyright (C) 2017, 2018, 2019 dbrock, rain, mrchico\r\n\r\n// This program is free software: you can redistribute it and/or modify\r\n// it under the terms of the GNU Affero General Public License as published by\r\n// the Free Software Foundation, either version 3 of the License, or\r\n// (at your option) any later version.\r\n//\r\n// This program is distributed in the hope that it will be useful,\r\n// but WITHOUT ANY WARRANTY; without even the implied warranty of\r\n// MERCHANTABILITY or FITNESS FOR A PARTICULAR PURPOSE.  See the\r\n// GNU Affero General Public License for more details.\r\n//\r\n// You should have received a copy of the GNU Affero General Public License\r\n// along with this program.  If not, see <https://www.gnu.org/licenses/>.\r\n\r\n/* pragma solidity 0.5.12; */\r\n\r\n/* import \"./lib.sol\"; */\r\n\r\ncontract Dai is LibNote {\r\n    // --- Auth ---\r\n    mapping(address => uint256) public wards;\r\n\r\n    function rely(address guy) external note auth {\r\n        wards[guy] = 1;\r\n    }\r\n\r\n    function deny(address guy) external note auth {\r\n        wards[guy] = 0;\r\n    }\r\n\r\n    modifier auth {\r\n        require(wards[msg.sender] == 1, \"Dai/not-authorized\");\r\n        _;\r\n    }\r\n\r\n    // --- ERC20 Data ---\r\n    string public constant name = \"Dai Stablecoin\";\r\n    string public constant symbol = \"DAI\";\r\n    string public constant version = \"1\";\r\n    uint8 public constant decimals = 18;\r\n    uint256 public totalSupply;\r\n\r\n    mapping(address => uint256) public balanceOf;\r\n    mapping(address => mapping(address => uint256)) public allowance;\r\n    mapping(address => uint256) public nonces;\r\n\r\n    event Approval(address indexed src, address indexed guy, uint256 wad);\r\n    event Transfer(address indexed src, address indexed dst, uint256 wad);\r\n\r\n    // --- Math ---\r\n    function add(uint256 x, uint256 y) internal pure returns (uint256 z) {\r\n        require((z = x + y) >= x);\r\n    }\r\n\r\n    function sub(uint256 x, uint256 y) internal pure returns (uint256 z) {\r\n        require((z = x - y) <= x);\r\n    }\r\n\r\n    // --- EIP712 niceties ---\r\n    bytes32 public DOMAIN_SEPARATOR;\r\n    // bytes32 public constant PERMIT_TYPEHASH = keccak256(\"Permit(address holder,address spender,uint256 nonce,uint256 expiry,bool allowed)\");\r\n    bytes32 public constant PERMIT_TYPEHASH =\r\n        0xea2aa0a1be11a07ed86d755c93467f4f82362b452371d1ba94d1715123511acb;\r\n\r\n    constructor(uint256 chainId_) public {\r\n        wards[msg.sender] = 1;\r\n        DOMAIN_SEPARATOR = keccak256(\r\n            abi.encode(\r\n                keccak256(\r\n                    \"EIP712Domain(string name,string version,uint256 chainId,address verifyingContract)\"\r\n                ),\r\n                keccak256(bytes(name)),\r\n                keccak256(bytes(version)),\r\n                chainId_,\r\n                address(this)\r\n            )\r\n        );\r\n    }\r\n\r\n    // --- Token ---\r\n    function transfer(address dst, uint256 wad) external returns (bool) {\r\n        return transferFrom(msg.sender, dst, wad);\r\n    }\r\n\r\n    function transferFrom(\r\n        address src,\r\n        address dst,\r\n        uint256 wad\r\n    ) public returns (bool) {\r\n        require(balanceOf[src] >= wad, \"Dai/insufficient-balance\");\r\n        if (src != msg.sender && allowance[src][msg.sender] != uint256(-1)) {\r\n            require(\r\n                allowance[src][msg.sender] >= wad,\r\n                \"Dai/insufficient-allowance\"\r\n            );\r\n            allowance[src][msg.sender] = sub(allowance[src][msg.sender], wad);\r\n        }\r\n        balanceOf[src] = sub(balanceOf[src], wad);\r\n        balanceOf[dst] = add(balanceOf[dst], wad);\r\n        emit Transfer(src, dst, wad);\r\n        return true;\r\n    }\r\n\r\n    function mint(address usr, uint256 wad) external auth {\r\n        balanceOf[usr] = add(balanceOf[usr], wad);\r\n        totalSupply = add(totalSupply, wad);\r\n        emit Transfer(address(0), usr, wad);\r\n    }\r\n\r\n    function burn(address usr, uint256 wad) external {\r\n        require(balanceOf[usr] >= wad, \"Dai/insufficient-balance\");\r\n        if (usr != msg.sender && allowance[usr][msg.sender] != uint256(-1)) {\r\n            require(\r\n                allowance[usr][msg.sender] >= wad,\r\n                \"Dai/insufficient-allowance\"\r\n            );\r\n            allowance[usr][msg.sender] = sub(allowance[usr][msg.sender], wad);\r\n        }\r\n        balanceOf[usr] = sub(balanceOf[usr], wad);\r\n        totalSupply = sub(totalSupply, wad);\r\n        emit Transfer(usr, address(0), wad);\r\n    }\r\n\r\n    function approve(address usr, uint256 wad) external returns (bool) {\r\n        allowance[msg.sender][usr] = wad;\r\n        emit Approval(msg.sender, usr, wad);\r\n        return true;\r\n    }\r\n\r\n    // --- Alias ---\r\n    function push(address usr, uint256 wad) external {\r\n        transferFrom(msg.sender, usr, wad);\r\n    }\r\n\r\n    function pull(address usr, uint256 wad) external {\r\n        transferFrom(usr, msg.sender, wad);\r\n    }\r\n\r\n    function move(\r\n        address src,\r\n        address dst,\r\n        uint256 wad\r\n    ) external {\r\n        transferFrom(src, dst, wad);\r\n    }\r\n\r\n    // --- Approve by signature ---\r\n    function permit(\r\n        address holder,\r\n        address spender,\r\n        uint256 nonce,\r\n        uint256 expiry,\r\n        bool allowed,\r\n        uint8 v,\r\n        bytes32 r,\r\n        bytes32 s\r\n    ) external {\r\n        bytes32 digest = keccak256(\r\n            abi.encodePacked(\r\n                \"\\x19\\x01\",\r\n                DOMAIN_SEPARATOR,\r\n                keccak256(\r\n                    abi.encode(\r\n                        PERMIT_TYPEHASH,\r\n                        holder,\r\n                        spender,\r\n                        nonce,\r\n                        expiry,\r\n                        allowed\r\n                    )\r\n                )\r\n            )\r\n        );\r\n\r\n        require(holder != address(0), \"Dai/invalid-address-0\");\r\n        require(holder == ecrecover(digest, v, r, s), \"Dai/invalid-permit\");\r\n        require(expiry == 0 || now <= expiry, \"Dai/permit-expired\");\r\n        require(nonce == nonces[holder]++, \"Dai/invalid-nonce\");\r\n        uint256 wad = allowed ? uint256(-1) : 0;\r\n        allowance[holder][spender] = wad;\r\n        emit Approval(holder, spender, wad);\r\n    }\r\n}\r\n",
  "sourcePath": "E:/Blockchain/Asva/Tokens0.5.0/contracts/DAI.sol",
  "compiler": {
    "name": "solc",
    "version": "0.5.0+commit.1d4f565a.Emscripten.clang"
  },
  "schemaVersion": "3.4.1",
  "updatedAt": "2021-06-23T13:06:29.827Z",
  "networkType": "ethereum",
  "devdoc": {
    "methods": {}
  },
  "userdoc": {
    "methods": {},
    "notice": "/// /nix/store/8xb41r4qd0cjb63wcrxf1qmfg88p0961-dss-6fd7de0/src/dai.sol"
  }
}